{
  "_format": "hh-sol-artifact-1",
  "contractName": "CampaignFactory",
  "sourceName": "contracts/CampaignFactory.sol",
  "abi": [
    {
      "anonymous": false,
      "inputs": [
        {
          "indexed": false,
          "internalType": "string",
          "name": "title",
          "type": "string"
        },
        {
          "indexed": false,
          "internalType": "uint256",
          "name": "requiredAmount",
          "type": "uint256"
        },
        {
          "indexed": true,
          "internalType": "address",
          "name": "owner",
          "type": "address"
        },
        {
          "indexed": false,
          "internalType": "address",
          "name": "campaignAddress",
          "type": "address"
        },
        {
          "indexed": false,
          "internalType": "string",
          "name": "imgURI",
          "type": "string"
        },
        {
          "indexed": true,
          "internalType": "uint256",
          "name": "timestamp",
          "type": "uint256"
        },
        {
          "indexed": true,
          "internalType": "string",
          "name": "category",
          "type": "string"
        },
        {
          "indexed": false,
          "internalType": "uint256",
          "name": "deadline",
          "type": "uint256"
        }
      ],
      "name": "campaignCreated",
      "type": "event"
    },
    {
      "inputs": [
        {
          "internalType": "string",
          "name": "campaignTitle",
          "type": "string"
        },
        {
          "internalType": "uint256",
          "name": "requiredCampaignAmount",
          "type": "uint256"
        },
        {
          "internalType": "string",
          "name": "imgURI",
          "type": "string"
        },
        {
          "internalType": "string",
          "name": "category",
          "type": "string"
        },
        {
          "internalType": "string",
          "name": "storyURI",
          "type": "string"
        },
        {
          "internalType": "uint256",
          "name": "campaignDeadline",
          "type": "uint256"
        }
      ],
      "name": "createCampaign",
      "outputs": [
        {
          "internalType": "contract Campaign",
          "name": "newCampaign",
          "type": "address"
        }
      ],
      "stateMutability": "nonpayable",
      "type": "function"
    },
    {
      "inputs": [
        {
          "internalType": "uint256",
          "name": "",
          "type": "uint256"
        }
      ],
      "name": "deployedCampaigns",
      "outputs": [
        {
          "internalType": "address",
          "name": "",
          "type": "address"
        }
      ],
      "stateMutability": "view",
      "type": "function"
    }
  ],
  "bytecode": "0x608060405234801561001057600080fd5b50611bd1806100206000396000f3fe60806040523480156200001157600080fd5b50600436106200003a5760003560e01c8063339d50a5146200003f5780635660214b1462000075575b600080fd5b6200005d60048036038101906200005791906200026d565b620000ab565b6040516200006c9190620002e4565b60405180910390f35b6200009360048036038101906200008d919062000463565b620000eb565b604051620000a29190620005e6565b60405180910390f35b60008181548110620000bc57600080fd5b906000526020600020016000915054906101000a900473ffffffffffffffffffffffffffffffffffffffff1681565b6000868686853386604051620001019062000210565b6200011296959493929190620006a7565b604051809103906000f0801580156200012f573d6000803e3d6000fd5b5090506000819080600181540180825580915050600190039060005260206000200160009091909190916101000a81548173ffffffffffffffffffffffffffffffffffffffff021916908373ffffffffffffffffffffffffffffffffffffffff16021790555083604051620001a591906200076b565b6040518091039020423373ffffffffffffffffffffffffffffffffffffffff167f19d018403fc558c3177d20a4bac51c386105cf56ab523d087e52fe0ede9d494a8a8a868b89604051620001fe95949392919062000784565b60405180910390a49695505050505050565b6113ac80620007f083390190565b6000604051905090565b600080fd5b600080fd5b6000819050919050565b620002478162000232565b81146200025357600080fd5b50565b60008135905062000267816200023c565b92915050565b60006020828403121562000286576200028562000228565b5b6000620002968482850162000256565b91505092915050565b600073ffffffffffffffffffffffffffffffffffffffff82169050919050565b6000620002cc826200029f565b9050919050565b620002de81620002bf565b82525050565b6000602082019050620002fb6000830184620002d3565b92915050565b600080fd5b600080fd5b6000601f19601f8301169050919050565b7f4e487b7100000000000000000000000000000000000000000000000000000000600052604160045260246000fd5b62000356826200030b565b810181811067ffffffffffffffff821117156200037857620003776200031c565b5b80604052505050565b60006200038d6200021e565b90506200039b82826200034b565b919050565b600067ffffffffffffffff821115620003be57620003bd6200031c565b5b620003c9826200030b565b9050602081019050919050565b82818337600083830152505050565b6000620003fc620003f684620003a0565b62000381565b9050828152602081018484840111156200041b576200041a62000306565b5b62000428848285620003d6565b509392505050565b600082601f83011262000448576200044762000301565b5b81356200045a848260208601620003e5565b91505092915050565b60008060008060008060c0878903121562000483576200048262000228565b5b600087013567ffffffffffffffff811115620004a457620004a36200022d565b5b620004b289828a0162000430565b9650506020620004c589828a0162000256565b955050604087013567ffffffffffffffff811115620004e957620004e86200022d565b5b620004f789828a0162000430565b945050606087013567ffffffffffffffff8111156200051b576200051a6200022d565b5b6200052989828a0162000430565b935050608087013567ffffffffffffffff8111156200054d576200054c6200022d565b5b6200055b89828a0162000430565b92505060a06200056e89828a0162000256565b9150509295509295509295565b6000819050919050565b6000620005a6620005a06200059a846200029f565b6200057b565b6200029f565b9050919050565b6000620005ba8262000585565b9050919050565b6000620005ce82620005ad565b9050919050565b620005e081620005c1565b82525050565b6000602082019050620005fd6000830184620005d5565b92915050565b600081519050919050565b600082825260208201905092915050565b60005b838110156200063f57808201518184015260208101905062000622565b838111156200064f576000848401525b50505050565b6000620006628262000603565b6200066e81856200060e565b9350620006808185602086016200061f565b6200068b816200030b565b840191505092915050565b620006a18162000232565b82525050565b600060c0820190508181036000830152620006c3818962000655565b9050620006d4602083018862000696565b8181036040830152620006e8818762000655565b90508181036060830152620006fe818662000655565b90506200070f6080830185620002d3565b6200071e60a083018462000696565b979650505050505050565b600081905092915050565b6000620007418262000603565b6200074d818562000729565b93506200075f8185602086016200061f565b80840191505092915050565b600062000779828462000734565b915081905092915050565b600060a0820190508181036000830152620007a0818862000655565b9050620007b1602083018762000696565b620007c06040830186620002d3565b8181036060830152620007d4818562000655565b9050620007e5608083018462000696565b969550505050505056fe60806040526001600860006101000a81548160ff0219169083151502179055503480156200002c57600080fd5b50604051620013ac380380620013ac8339818101604052810190620000529190620003ed565b600160008190555085600290805190602001906200007292919062000100565b508460038190555083600490805190602001906200009292919062000100565b508260059080519060200190620000ab92919062000100565b5081600660006101000a81548173ffffffffffffffffffffffffffffffffffffffff021916908373ffffffffffffffffffffffffffffffffffffffff160217905550806009819055505050505050506200054b565b8280546200010e9062000515565b90600052602060002090601f0160209004810192826200013257600085556200017e565b82601f106200014d57805160ff19168380011785556200017e565b828001600101855582156200017e579182015b828111156200017d57825182559160200191906001019062000160565b5b5090506200018d919062000191565b5090565b5b80821115620001ac57600081600090555060010162000192565b5090565b6000604051905090565b600080fd5b600080fd5b600080fd5b600080fd5b6000601f19601f8301169050919050565b7f4e487b7100000000000000000000000000000000000000000000000000000000600052604160045260246000fd5b6200021982620001ce565b810181811067ffffffffffffffff821117156200023b576200023a620001df565b5b80604052505050565b600062000250620001b0565b90506200025e82826200020e565b919050565b600067ffffffffffffffff821115620002815762000280620001df565b5b6200028c82620001ce565b9050602081019050919050565b60005b83811015620002b95780820151818401526020810190506200029c565b83811115620002c9576000848401525b50505050565b6000620002e6620002e08462000263565b62000244565b905082815260208101848484011115620003055762000304620001c9565b5b6200031284828562000299565b509392505050565b600082601f830112620003325762000331620001c4565b5b815162000344848260208601620002cf565b91505092915050565b6000819050919050565b62000362816200034d565b81146200036e57600080fd5b50565b600081519050620003828162000357565b92915050565b600073ffffffffffffffffffffffffffffffffffffffff82169050919050565b6000620003b58262000388565b9050919050565b620003c781620003a8565b8114620003d357600080fd5b50565b600081519050620003e781620003bc565b92915050565b60008060008060008060c087890312156200040d576200040c620001ba565b5b600087015167ffffffffffffffff8111156200042e576200042d620001bf565b5b6200043c89828a016200031a565b96505060206200044f89828a0162000371565b955050604087015167ffffffffffffffff811115620004735762000472620001bf565b5b6200048189828a016200031a565b945050606087015167ffffffffffffffff811115620004a557620004a4620001bf565b5b620004b389828a016200031a565b9350506080620004c689828a01620003d6565b92505060a0620004d989828a0162000371565b9150509295509295509295565b7f4e487b7100000000000000000000000000000000000000000000000000000000600052602260045260246000fd5b600060028204905060018216806200052e57607f821691505b60208210811415620005455762000544620004e6565b5b50919050565b610e51806200055b6000396000f3fe6080604052600436106100ab5760003560e01c8063590e1ae311610064578063590e1ae3146101c45780638da5cb5b146101db5780639632e72014610206578063ed88c68e14610231578063ef043be61461023b578063f3ccaac014610266576100ba565b806329dcb0cf146100c457806334b66460146100ef5780633ccfd60b1461012c57806346c922d11461014357806348b9ef401461016e5780634a79d50c14610199576100ba565b366100ba576100b8610291565b005b6100c2610291565b005b3480156100d057600080fd5b506100d9610471565b6040516100e691906108ff565b60405180910390f35b3480156100fb57600080fd5b506101166004803603810190610111919061097d565b610477565b60405161012391906108ff565b60405180910390f35b34801561013857600080fd5b5061014161048f565b005b34801561014f57600080fd5b50610158610585565b6040516101659190610a43565b60405180910390f35b34801561017a57600080fd5b50610183610613565b60405161019091906108ff565b60405180910390f35b3480156101a557600080fd5b506101ae610619565b6040516101bb9190610a43565b60405180910390f35b3480156101d057600080fd5b506101d96106a7565b005b3480156101e757600080fd5b506101f0610819565b6040516101fd9190610a86565b60405180910390f35b34801561021257600080fd5b5061021b61083f565b60405161022891906108ff565b60405180910390f35b610239610291565b005b34801561024757600080fd5b50610250610845565b60405161025d9190610abc565b60405180910390f35b34801561027257600080fd5b5061027b610858565b6040516102889190610a43565b60405180910390f35b600860009054906101000a900460ff166102aa57600080fd5b60095442106102ee576040517f08c379a00000000000000000000000000000000000000000000000000000000081526004016102e590610b23565b60405180910390fd5b60003411610331576040517f08c379a000000000000000000000000000000000000000000000000000000000815260040161032890610b8f565b60405180910390fd5b6007546003546103419190610bde565b341115610394576007546003546103589190610bde565b6040517f1f48064000000000000000000000000000000000000000000000000000000000815260040161038b9190610c5e565b60405180910390fd5b34600760008282546103a69190610c8c565b9250508190555034600160003373ffffffffffffffffffffffffffffffffffffffff1673ffffffffffffffffffffffffffffffffffffffff16815260200190815260200160002060008282546103fc9190610c8c565b925050819055506003546007541061042a576000600860006101000a81548160ff0219169083151502179055505b42343373ffffffffffffffffffffffffffffffffffffffff167fe6add99d06d9ad7fc456e746aa162eed6211c5002ef2dacdd67b8d2016822fba60405160405180910390a4565b60095481565b60016020528060005260406000206000915090505481565b600860009054906101000a900460ff16156104df576040517f08c379a00000000000000000000000000000000000000000000000000000000081526004016104d690610d2e565b60405180910390fd5b600660009054906101000a900473ffffffffffffffffffffffffffffffffffffffff1673ffffffffffffffffffffffffffffffffffffffff166108fc6007549081150290604051600060405180830381858888f19350505050158015610549573d6000803e3d6000fd5b507fe6b43d01275ea8d9d25bfaa418ad4c2cba4924a59bae1903979130e0a2bbf19260075460405161057b91906108ff565b60405180910390a1565b6005805461059290610d7d565b80601f01602080910402602001604051908101604052809291908181526020018280546105be90610d7d565b801561060b5780601f106105e05761010080835404028352916020019161060b565b820191906000526020600020905b8154815290600101906020018083116105ee57829003601f168201915b505050505081565b60035481565b6002805461062690610d7d565b80601f016020809104026020016040519081016040528092919081815260200182805461065290610d7d565b801561069f5780601f106106745761010080835404028352916020019161069f565b820191906000526020600020905b81548152906001019060200180831161068257829003601f168201915b505050505081565b600954421180156106bb5750600354600754105b6106c457600080fd5b6000600160003373ffffffffffffffffffffffffffffffffffffffff1673ffffffffffffffffffffffffffffffffffffffff1681526020019081526020016000205411610746576040517f08c379a000000000000000000000000000000000000000000000000000000000815260040161073d90610dfb565b60405180910390fd5b60003390506000600160003373ffffffffffffffffffffffffffffffffffffffff1673ffffffffffffffffffffffffffffffffffffffff168152602001908152602001600020819055508073ffffffffffffffffffffffffffffffffffffffff166108fc600160003373ffffffffffffffffffffffffffffffffffffffff1673ffffffffffffffffffffffffffffffffffffffff168152602001908152602001600020549081150290604051600060405180830381858888f19350505050158015610815573d6000803e3d6000fd5b5050565b600660009054906101000a900473ffffffffffffffffffffffffffffffffffffffff1681565b60075481565b600860009054906101000a900460ff1681565b6004805461086590610d7d565b80601f016020809104026020016040519081016040528092919081815260200182805461089190610d7d565b80156108de5780601f106108b3576101008083540402835291602001916108de565b820191906000526020600020905b8154815290600101906020018083116108c157829003601f168201915b505050505081565b6000819050919050565b6108f9816108e6565b82525050565b600060208201905061091460008301846108f0565b92915050565b600080fd5b600073ffffffffffffffffffffffffffffffffffffffff82169050919050565b600061094a8261091f565b9050919050565b61095a8161093f565b811461096557600080fd5b50565b60008135905061097781610951565b92915050565b6000602082840312156109935761099261091a565b5b60006109a184828501610968565b91505092915050565b600081519050919050565b600082825260208201905092915050565b60005b838110156109e45780820151818401526020810190506109c9565b838111156109f3576000848401525b50505050565b6000601f19601f8301169050919050565b6000610a15826109aa565b610a1f81856109b5565b9350610a2f8185602086016109c6565b610a38816109f9565b840191505092915050565b60006020820190508181036000830152610a5d8184610a0a565b905092915050565b6000610a708261091f565b9050919050565b610a8081610a65565b82525050565b6000602082019050610a9b6000830184610a77565b92915050565b60008115159050919050565b610ab681610aa1565b82525050565b6000602082019050610ad16000830184610aad565b92915050565b7f446561646c696e652068617320456e6465642100000000000000000000000000600082015250565b6000610b0d6013836109b5565b9150610b1882610ad7565b602082019050919050565b60006020820190508181036000830152610b3c81610b00565b9050919050565b7f4d73672e76616c7565203d203000000000000000000000000000000000000000600082015250565b6000610b79600d836109b5565b9150610b8482610b43565b602082019050919050565b60006020820190508181036000830152610ba881610b6c565b9050919050565b7f4e487b7100000000000000000000000000000000000000000000000000000000600052601160045260246000fd5b6000610be9826108e6565b9150610bf4836108e6565b925082821015610c0757610c06610baf565b5b828203905092915050565b7f446f6e6174696f6e20726f6f6d206c6566740000000000000000000000000000600082015250565b6000610c486012836109b5565b9150610c5382610c12565b602082019050919050565b60006040820190508181036000830152610c7781610c3b565b9050610c8660208301846108f0565b92915050565b6000610c97826108e6565b9150610ca2836108e6565b9250827fffffffffffffffffffffffffffffffffffffffffffffffffffffffffffffffff03821115610cd757610cd6610baf565b5b828201905092915050565b7f43616d706169676e207374696c6c206e6f74206f766572000000000000000000600082015250565b6000610d186017836109b5565b9150610d2382610ce2565b602082019050919050565b60006020820190508181036000830152610d4781610d0b565b9050919050565b7f4e487b7100000000000000000000000000000000000000000000000000000000600052602260045260246000fd5b60006002820490506001821680610d9557607f821691505b60208210811415610da957610da8610d4e565b5b50919050565b7f4e6f7420656c696769626c6520666f7220726566756e64000000000000000000600082015250565b6000610de56017836109b5565b9150610df082610daf565b602082019050919050565b60006020820190508181036000830152610e1481610dd8565b905091905056fea2646970667358221220645d5b195648d753a39671fd751435bdb94dc6aacfc7cbbc6344aa8f753c708f64736f6c634300080a0033a264697066735822122049801201391172ba3f80543fdc5c0cb341a468842e315999df3f54ca178d9d5d64736f6c634300080a0033",
  "linkReferences": {},
  "deployedLinkReferences": {}
}