{
  "_format": "hh-sol-artifact-1",
  "contractName": "CampaignFactory",
  "sourceName": "contracts/CampaignFactory.sol",
  "abi": [
    {
      "anonymous": false,
      "inputs": [
        {
          "indexed": false,
          "internalType": "string",
          "name": "title",
          "type": "string"
        },
        {
          "indexed": false,
          "internalType": "uint256",
          "name": "requiredAmount",
          "type": "uint256"
        },
        {
          "indexed": true,
          "internalType": "address",
          "name": "owner",
          "type": "address"
        },
        {
          "indexed": false,
          "internalType": "address",
          "name": "campaignAddress",
          "type": "address"
        },
        {
          "indexed": false,
          "internalType": "string",
          "name": "imgURI",
          "type": "string"
        },
        {
          "indexed": true,
          "internalType": "uint256",
          "name": "timestamp",
          "type": "uint256"
        },
        {
          "indexed": true,
          "internalType": "string",
          "name": "category",
          "type": "string"
        }
      ],
      "name": "campaignCreated",
      "type": "event"
    },
    {
      "inputs": [
        {
          "internalType": "string",
          "name": "campaignTitle",
          "type": "string"
        },
        {
          "internalType": "uint256",
          "name": "requiredCampaignAmount",
          "type": "uint256"
        },
        {
          "internalType": "string",
          "name": "imgURI",
          "type": "string"
        },
        {
          "internalType": "string",
          "name": "category",
          "type": "string"
        },
        {
          "internalType": "string",
          "name": "storyURI",
          "type": "string"
        }
      ],
      "name": "createCampaign",
      "outputs": [
        {
          "internalType": "contract Campaign",
          "name": "newCampaign",
          "type": "address"
        }
      ],
      "stateMutability": "nonpayable",
      "type": "function"
    },
    {
      "inputs": [
        {
          "internalType": "uint256",
          "name": "",
          "type": "uint256"
        }
      ],
      "name": "deployedCampaigns",
      "outputs": [
        {
          "internalType": "address",
          "name": "",
          "type": "address"
        }
      ],
      "stateMutability": "view",
      "type": "function"
    }
  ],
  "bytecode": "0x608060405234801561001057600080fd5b50611877806100206000396000f3fe60806040523480156200001157600080fd5b50600436106200003a5760003560e01c8063339d50a5146200003f578063c658857d1462000075575b600080fd5b6200005d600480360381019062000057919062000268565b620000ab565b6040516200006c9190620002df565b60405180910390f35b6200009360048036038101906200008d91906200045e565b620000eb565b604051620000a29190620005cd565b60405180910390f35b60008181548110620000bc57600080fd5b906000526020600020016000915054906101000a900473ffffffffffffffffffffffffffffffffffffffff1681565b6000858585843360405162000100906200020b565b620001109594939291906200068e565b604051809103906000f0801580156200012d573d6000803e3d6000fd5b5090506000819080600181540180825580915050600190039060005260206000200160009091909190916101000a81548173ffffffffffffffffffffffffffffffffffffffff021916908373ffffffffffffffffffffffffffffffffffffffff16021790555082604051620001a3919062000742565b6040518091039020423373ffffffffffffffffffffffffffffffffffffffff167ff932d905365211c7f19fda44bcb55b1adbe63365f7cdae1c35ddcb3e38ed1d468989868a604051620001fa94939291906200075b565b60405180910390a495945050505050565b61108b80620007b783390190565b6000604051905090565b600080fd5b600080fd5b6000819050919050565b62000242816200022d565b81146200024e57600080fd5b50565b600081359050620002628162000237565b92915050565b60006020828403121562000281576200028062000223565b5b6000620002918482850162000251565b91505092915050565b600073ffffffffffffffffffffffffffffffffffffffff82169050919050565b6000620002c7826200029a565b9050919050565b620002d981620002ba565b82525050565b6000602082019050620002f66000830184620002ce565b92915050565b600080fd5b600080fd5b6000601f19601f8301169050919050565b7f4e487b7100000000000000000000000000000000000000000000000000000000600052604160045260246000fd5b620003518262000306565b810181811067ffffffffffffffff8211171562000373576200037262000317565b5b80604052505050565b60006200038862000219565b905062000396828262000346565b919050565b600067ffffffffffffffff821115620003b957620003b862000317565b5b620003c48262000306565b9050602081019050919050565b82818337600083830152505050565b6000620003f7620003f1846200039b565b6200037c565b90508281526020810184848401111562000416576200041562000301565b5b62000423848285620003d1565b509392505050565b600082601f830112620004435762000442620002fc565b5b813562000455848260208601620003e0565b91505092915050565b600080600080600060a086880312156200047d576200047c62000223565b5b600086013567ffffffffffffffff8111156200049e576200049d62000228565b5b620004ac888289016200042b565b9550506020620004bf8882890162000251565b945050604086013567ffffffffffffffff811115620004e357620004e262000228565b5b620004f1888289016200042b565b935050606086013567ffffffffffffffff81111562000515576200051462000228565b5b62000523888289016200042b565b925050608086013567ffffffffffffffff81111562000547576200054662000228565b5b62000555888289016200042b565b9150509295509295909350565b6000819050919050565b60006200058d6200058762000581846200029a565b62000562565b6200029a565b9050919050565b6000620005a1826200056c565b9050919050565b6000620005b58262000594565b9050919050565b620005c781620005a8565b82525050565b6000602082019050620005e46000830184620005bc565b92915050565b600081519050919050565b600082825260208201905092915050565b60005b838110156200062657808201518184015260208101905062000609565b8381111562000636576000848401525b50505050565b60006200064982620005ea565b620006558185620005f5565b93506200066781856020860162000606565b620006728162000306565b840191505092915050565b62000688816200022d565b82525050565b600060a0820190508181036000830152620006aa81886200063c565b9050620006bb60208301876200067d565b8181036040830152620006cf81866200063c565b90508181036060830152620006e581856200063c565b9050620006f66080830184620002ce565b9695505050505050565b600081905092915050565b60006200071882620005ea565b62000724818562000700565b93506200073681856020860162000606565b80840191505092915050565b60006200075082846200070b565b915081905092915050565b600060808201905081810360008301526200077781876200063c565b90506200078860208301866200067d565b620007976040830185620002ce565b8181036060830152620007ab81846200063c565b90509594505050505056fe60806040526001600660006101000a81548160ff0219169083151502179055503480156200002c57600080fd5b506040516200108b3803806200108b8339818101604052810190620000529190620003dd565b84600090805190602001906200006a929190620000f0565b508360018190555082600290805190602001906200008a929190620000f0565b508160039080519060200190620000a3929190620000f0565b5080600460006101000a81548173ffffffffffffffffffffffffffffffffffffffff021916908373ffffffffffffffffffffffffffffffffffffffff160217905550505050505062000527565b828054620000fe90620004f1565b90600052602060002090601f0160209004810192826200012257600085556200016e565b82601f106200013d57805160ff19168380011785556200016e565b828001600101855582156200016e579182015b828111156200016d57825182559160200191906001019062000150565b5b5090506200017d919062000181565b5090565b5b808211156200019c57600081600090555060010162000182565b5090565b6000604051905090565b600080fd5b600080fd5b600080fd5b600080fd5b6000601f19601f8301169050919050565b7f4e487b7100000000000000000000000000000000000000000000000000000000600052604160045260246000fd5b6200020982620001be565b810181811067ffffffffffffffff821117156200022b576200022a620001cf565b5b80604052505050565b600062000240620001a0565b90506200024e8282620001fe565b919050565b600067ffffffffffffffff821115620002715762000270620001cf565b5b6200027c82620001be565b9050602081019050919050565b60005b83811015620002a95780820151818401526020810190506200028c565b83811115620002b9576000848401525b50505050565b6000620002d6620002d08462000253565b62000234565b905082815260208101848484011115620002f557620002f4620001b9565b5b6200030284828562000289565b509392505050565b600082601f830112620003225762000321620001b4565b5b815162000334848260208601620002bf565b91505092915050565b6000819050919050565b62000352816200033d565b81146200035e57600080fd5b50565b600081519050620003728162000347565b92915050565b600073ffffffffffffffffffffffffffffffffffffffff82169050919050565b6000620003a58262000378565b9050919050565b620003b78162000398565b8114620003c357600080fd5b50565b600081519050620003d781620003ac565b92915050565b600080600080600060a08688031215620003fc57620003fb620001aa565b5b600086015167ffffffffffffffff8111156200041d576200041c620001af565b5b6200042b888289016200030a565b95505060206200043e8882890162000361565b945050604086015167ffffffffffffffff811115620004625762000461620001af565b5b62000470888289016200030a565b935050606086015167ffffffffffffffff811115620004945762000493620001af565b5b620004a2888289016200030a565b9250506080620004b588828901620003c6565b9150509295509295909350565b7f4e487b7100000000000000000000000000000000000000000000000000000000600052602260045260246000fd5b600060028204905060018216806200050a57607f821691505b60208210811415620005215762000520620004c2565b5b50919050565b610b5480620005376000396000f3fe60806040526004361061008a5760003560e01c80638da5cb5b116100595780638da5cb5b1461012e5780639632e72014610159578063ed88c68e14610184578063ef043be61461018e578063f3ccaac0146101b957610099565b80633ccfd60b146100a357806346c922d1146100ad57806348b9ef40146100d85780634a79d50c1461010357610099565b36610099576100976101e4565b005b6100a16101e4565b005b6100ab61032a565b005b3480156100b957600080fd5b506100c26104b0565b6040516100cf9190610738565b60405180910390f35b3480156100e457600080fd5b506100ed61053e565b6040516100fa9190610773565b60405180910390f35b34801561010f57600080fd5b50610118610544565b6040516101259190610738565b60405180910390f35b34801561013a57600080fd5b506101436105d2565b60405161015091906107cf565b60405180910390f35b34801561016557600080fd5b5061016e6105f8565b60405161017b9190610773565b60405180910390f35b61018c6101e4565b005b34801561019a57600080fd5b506101a36105fe565b6040516101b09190610805565b60405180910390f35b3480156101c557600080fd5b506101ce610611565b6040516101db9190610738565b60405180910390f35b600660009054906101000a900460ff166101fd57600080fd5b60003411610240576040517f08c379a00000000000000000000000000000000000000000000000000000000081526004016102379061086c565b60405180910390fd5b60055460015461025091906108bb565b3411156102a35760055460015461026791906108bb565b6040517f1f48064000000000000000000000000000000000000000000000000000000000815260040161029a919061093b565b60405180910390fd5b34600560008282546102b59190610969565b92505081905550600154600554106102e3576000600660006101000a81548160ff0219169083151502179055505b42343373ffffffffffffffffffffffffffffffffffffffff167fe6add99d06d9ad7fc456e746aa162eed6211c5002ef2dacdd67b8d2016822fba60405160405180910390a4565b600660009054906101000a900460ff161561037a576040517f08c379a000000000000000000000000000000000000000000000000000000000815260040161037190610a0b565b60405180910390fd5b600460009054906101000a900473ffffffffffffffffffffffffffffffffffffffff1673ffffffffffffffffffffffffffffffffffffffff163373ffffffffffffffffffffffffffffffffffffffff161461040a576040517f08c379a000000000000000000000000000000000000000000000000000000000815260040161040190610a9d565b60405180910390fd5b600460009054906101000a900473ffffffffffffffffffffffffffffffffffffffff1673ffffffffffffffffffffffffffffffffffffffff166108fc6005549081150290604051600060405180830381858888f19350505050158015610474573d6000803e3d6000fd5b507fe6b43d01275ea8d9d25bfaa418ad4c2cba4924a59bae1903979130e0a2bbf1926005546040516104a69190610773565b60405180910390a1565b600380546104bd90610aec565b80601f01602080910402602001604051908101604052809291908181526020018280546104e990610aec565b80156105365780601f1061050b57610100808354040283529160200191610536565b820191906000526020600020905b81548152906001019060200180831161051957829003601f168201915b505050505081565b60015481565b6000805461055190610aec565b80601f016020809104026020016040519081016040528092919081815260200182805461057d90610aec565b80156105ca5780601f1061059f576101008083540402835291602001916105ca565b820191906000526020600020905b8154815290600101906020018083116105ad57829003601f168201915b505050505081565b600460009054906101000a900473ffffffffffffffffffffffffffffffffffffffff1681565b60055481565b600660009054906101000a900460ff1681565b6002805461061e90610aec565b80601f016020809104026020016040519081016040528092919081815260200182805461064a90610aec565b80156106975780601f1061066c57610100808354040283529160200191610697565b820191906000526020600020905b81548152906001019060200180831161067a57829003601f168201915b505050505081565b600081519050919050565b600082825260208201905092915050565b60005b838110156106d95780820151818401526020810190506106be565b838111156106e8576000848401525b50505050565b6000601f19601f8301169050919050565b600061070a8261069f565b61071481856106aa565b93506107248185602086016106bb565b61072d816106ee565b840191505092915050565b6000602082019050818103600083015261075281846106ff565b905092915050565b6000819050919050565b61076d8161075a565b82525050565b60006020820190506107886000830184610764565b92915050565b600073ffffffffffffffffffffffffffffffffffffffff82169050919050565b60006107b98261078e565b9050919050565b6107c9816107ae565b82525050565b60006020820190506107e460008301846107c0565b92915050565b60008115159050919050565b6107ff816107ea565b82525050565b600060208201905061081a60008301846107f6565b92915050565b7f4d73672e76616c7565203d203000000000000000000000000000000000000000600082015250565b6000610856600d836106aa565b915061086182610820565b602082019050919050565b6000602082019050818103600083015261088581610849565b9050919050565b7f4e487b7100000000000000000000000000000000000000000000000000000000600052601160045260246000fd5b60006108c68261075a565b91506108d18361075a565b9250828210156108e4576108e361088c565b5b828203905092915050565b7f446f6e6174696f6e20726f6f6d206c6566740000000000000000000000000000600082015250565b60006109256012836106aa565b9150610930826108ef565b602082019050919050565b6000604082019050818103600083015261095481610918565b90506109636020830184610764565b92915050565b60006109748261075a565b915061097f8361075a565b9250827fffffffffffffffffffffffffffffffffffffffffffffffffffffffffffffffff038211156109b4576109b361088c565b5b828201905092915050565b7f43616d706169676e207374696c6c206e6f74206f766572000000000000000000600082015250565b60006109f56017836106aa565b9150610a00826109bf565b602082019050919050565b60006020820190508181036000830152610a24816109e8565b9050919050565b7f4f6e6c7920746865206f776e6572206f66207468652063616d706169676e206360008201527f616e207769746864726177000000000000000000000000000000000000000000602082015250565b6000610a87602b836106aa565b9150610a9282610a2b565b604082019050919050565b60006020820190508181036000830152610ab681610a7a565b9050919050565b7f4e487b7100000000000000000000000000000000000000000000000000000000600052602260045260246000fd5b60006002820490506001821680610b0457607f821691505b60208210811415610b1857610b17610abd565b5b5091905056fea26469706673582212205c2d138d7c84cbca8ca036ed8458443aff171a0fccf80c7f43b7e7b6e0e82eb464736f6c634300080a0033a264697066735822122067ab6bc5f4452ea65d38ae9317b366cecfe2acc3fe7c7564d038513692f0569464736f6c634300080a0033",
  "linkReferences": {},
  "deployedLinkReferences": {}
}