{
  "_format": "hh-sol-artifact-1",
  "contractName": "Campaign",
  "sourceName": "contracts/Campaign.sol",
  "abi": [
    {
      "inputs": [
        {
          "internalType": "string",
          "name": "campaignTitle",
          "type": "string"
        },
        {
          "internalType": "uint256",
          "name": "requiredCampaignAmount",
          "type": "uint256"
        },
        {
          "internalType": "string",
          "name": "imgURI",
          "type": "string"
        },
        {
          "internalType": "string",
          "name": "storyURI",
          "type": "string"
        },
        {
          "internalType": "address",
          "name": "campaignOwner",
          "type": "address"
        }
      ],
      "stateMutability": "nonpayable",
      "type": "constructor"
    },
    {
      "anonymous": false,
      "inputs": [
        {
          "indexed": true,
          "internalType": "address",
          "name": "donar",
          "type": "address"
        },
        {
          "indexed": true,
          "internalType": "uint256",
          "name": "amount",
          "type": "uint256"
        },
        {
          "indexed": true,
          "internalType": "uint256",
          "name": "timestamp",
          "type": "uint256"
        }
      ],
      "name": "donated",
      "type": "event"
    },
    {
      "anonymous": false,
      "inputs": [
        {
          "indexed": false,
          "internalType": "address",
          "name": "campaignowner",
          "type": "address"
        },
        {
          "indexed": true,
          "internalType": "uint256",
          "name": "amount",
          "type": "uint256"
        }
      ],
      "name": "withdrawn",
      "type": "event"
    },
    {
      "inputs": [],
      "name": "donate",
      "outputs": [],
      "stateMutability": "payable",
      "type": "function"
    },
    {
      "inputs": [],
      "name": "image",
      "outputs": [
        {
          "internalType": "string",
          "name": "",
          "type": "string"
        }
      ],
      "stateMutability": "view",
      "type": "function"
    },
    {
      "inputs": [],
      "name": "owner",
      "outputs": [
        {
          "internalType": "address payable",
          "name": "",
          "type": "address"
        }
      ],
      "stateMutability": "view",
      "type": "function"
    },
    {
      "inputs": [],
      "name": "receivedAmount",
      "outputs": [
        {
          "internalType": "uint256",
          "name": "",
          "type": "uint256"
        }
      ],
      "stateMutability": "view",
      "type": "function"
    },
    {
      "inputs": [],
      "name": "requiredAmount",
      "outputs": [
        {
          "internalType": "uint256",
          "name": "",
          "type": "uint256"
        }
      ],
      "stateMutability": "view",
      "type": "function"
    },
    {
      "inputs": [],
      "name": "story",
      "outputs": [
        {
          "internalType": "string",
          "name": "",
          "type": "string"
        }
      ],
      "stateMutability": "view",
      "type": "function"
    },
    {
      "inputs": [],
      "name": "title",
      "outputs": [
        {
          "internalType": "string",
          "name": "",
          "type": "string"
        }
      ],
      "stateMutability": "view",
      "type": "function"
    },
    {
      "inputs": [],
      "name": "withdraw",
      "outputs": [],
      "stateMutability": "payable",
      "type": "function"
    }
  ],
  "bytecode": "0x60806040523480156200001157600080fd5b5060405162000f1538038062000f158339818101604052810190620000379190620003c2565b84600090805190602001906200004f929190620000d5565b508360018190555082600290805190602001906200006f929190620000d5565b50816003908051906020019062000088929190620000d5565b5080600460006101000a81548173ffffffffffffffffffffffffffffffffffffffff021916908373ffffffffffffffffffffffffffffffffffffffff16021790555050505050506200050c565b828054620000e390620004d6565b90600052602060002090601f01602090048101928262000107576000855562000153565b82601f106200012257805160ff191683800117855562000153565b8280016001018555821562000153579182015b828111156200015257825182559160200191906001019062000135565b5b50905062000162919062000166565b5090565b5b808211156200018157600081600090555060010162000167565b5090565b6000604051905090565b600080fd5b600080fd5b600080fd5b600080fd5b6000601f19601f8301169050919050565b7f4e487b7100000000000000000000000000000000000000000000000000000000600052604160045260246000fd5b620001ee82620001a3565b810181811067ffffffffffffffff8211171562000210576200020f620001b4565b5b80604052505050565b60006200022562000185565b9050620002338282620001e3565b919050565b600067ffffffffffffffff821115620002565762000255620001b4565b5b6200026182620001a3565b9050602081019050919050565b60005b838110156200028e57808201518184015260208101905062000271565b838111156200029e576000848401525b50505050565b6000620002bb620002b58462000238565b62000219565b905082815260208101848484011115620002da57620002d96200019e565b5b620002e78482856200026e565b509392505050565b600082601f83011262000307576200030662000199565b5b815162000319848260208601620002a4565b91505092915050565b6000819050919050565b620003378162000322565b81146200034357600080fd5b50565b60008151905062000357816200032c565b92915050565b600073ffffffffffffffffffffffffffffffffffffffff82169050919050565b60006200038a826200035d565b9050919050565b6200039c816200037d565b8114620003a857600080fd5b50565b600081519050620003bc8162000391565b92915050565b600080600080600060a08688031215620003e157620003e06200018f565b5b600086015167ffffffffffffffff81111562000402576200040162000194565b5b6200041088828901620002ef565b9550506020620004238882890162000346565b945050604086015167ffffffffffffffff81111562000447576200044662000194565b5b6200045588828901620002ef565b935050606086015167ffffffffffffffff81111562000479576200047862000194565b5b6200048788828901620002ef565b92505060806200049a88828901620003ab565b9150509295509295909350565b7f4e487b7100000000000000000000000000000000000000000000000000000000600052602260045260246000fd5b60006002820490506001821680620004ef57607f821691505b60208210811415620005065762000505620004a7565b5b50919050565b6109f9806200051c6000396000f3fe60806040526004361061007b5760003560e01c80638da5cb5b1161004e5780638da5cb5b1461010b5780639632e72014610136578063ed88c68e14610161578063f3ccaac01461016b5761007b565b80633ccfd60b1461008057806346c922d11461008a57806348b9ef40146100b55780634a79d50c146100e0575b600080fd5b610088610196565b005b34801561009657600080fd5b5061009f610319565b6040516100ac9190610639565b60405180910390f35b3480156100c157600080fd5b506100ca6103a7565b6040516100d79190610674565b60405180910390f35b3480156100ec57600080fd5b506100f56103ad565b6040516101029190610639565b60405180910390f35b34801561011757600080fd5b5061012061043b565b60405161012d91906106d0565b60405180910390f35b34801561014257600080fd5b5061014b610461565b6040516101589190610674565b60405180910390f35b610169610467565b005b34801561017757600080fd5b50610180610512565b60405161018d9190610639565b60405180910390f35b600460009054906101000a900473ffffffffffffffffffffffffffffffffffffffff1673ffffffffffffffffffffffffffffffffffffffff163373ffffffffffffffffffffffffffffffffffffffff1614610226576040517f08c379a000000000000000000000000000000000000000000000000000000000815260040161021d9061075d565b60405180910390fd5b6001546005541161026c576040517f08c379a0000000000000000000000000000000000000000000000000000000008152600401610263906107ef565b60405180910390fd5b600460009054906101000a900473ffffffffffffffffffffffffffffffffffffffff1673ffffffffffffffffffffffffffffffffffffffff166108fc6005549081150290604051600060405180830381858888f193505050501580156102d6573d6000803e3d6000fd5b506000600581905550347f6fb24f3ad0678f9d138e80b17293be051d87911eb34e9e60f0d1b9c3805e885a3360405161030f9190610830565b60405180910390a2565b600380546103269061087a565b80601f01602080910402602001604051908101604052809291908181526020018280546103529061087a565b801561039f5780601f106103745761010080835404028352916020019161039f565b820191906000526020600020905b81548152906001019060200180831161038257829003601f168201915b505050505081565b60015481565b600080546103ba9061087a565b80601f01602080910402602001604051908101604052809291908181526020018280546103e69061087a565b80156104335780601f1061040857610100808354040283529160200191610433565b820191906000526020600020905b81548152906001019060200180831161041657829003601f168201915b505050505081565b600460009054906101000a900473ffffffffffffffffffffffffffffffffffffffff1681565b60055481565b670de0b6b3a76400003411156104b2576040517f08c379a00000000000000000000000000000000000000000000000000000000081526004016104a99061091e565b60405180910390fd5b34600560008282546104c4919061096d565b9250508190555042343373ffffffffffffffffffffffffffffffffffffffff167fe6add99d06d9ad7fc456e746aa162eed6211c5002ef2dacdd67b8d2016822fba60405160405180910390a4565b6002805461051f9061087a565b80601f016020809104026020016040519081016040528092919081815260200182805461054b9061087a565b80156105985780601f1061056d57610100808354040283529160200191610598565b820191906000526020600020905b81548152906001019060200180831161057b57829003601f168201915b505050505081565b600081519050919050565b600082825260208201905092915050565b60005b838110156105da5780820151818401526020810190506105bf565b838111156105e9576000848401525b50505050565b6000601f19601f8301169050919050565b600061060b826105a0565b61061581856105ab565b93506106258185602086016105bc565b61062e816105ef565b840191505092915050565b600060208201905081810360008301526106538184610600565b905092915050565b6000819050919050565b61066e8161065b565b82525050565b60006020820190506106896000830184610665565b92915050565b600073ffffffffffffffffffffffffffffffffffffffff82169050919050565b60006106ba8261068f565b9050919050565b6106ca816106af565b82525050565b60006020820190506106e560008301846106c1565b92915050565b7f4f6e6c7920746865206f776e6572206f66207468652063616d706169676e206360008201527f616e207769746864726177000000000000000000000000000000000000000000602082015250565b6000610747602b836105ab565b9150610752826106eb565b604082019050919050565b600060208201905081810360008301526107768161073a565b9050919050565b7f526571756972656420616d6f756e74206e6f742066756c66696c6c656420796560008201527f7400000000000000000000000000000000000000000000000000000000000000602082015250565b60006107d96021836105ab565b91506107e48261077d565b604082019050919050565b60006020820190508181036000830152610808816107cc565b9050919050565b600061081a8261068f565b9050919050565b61082a8161080f565b82525050565b60006020820190506108456000830184610821565b92915050565b7f4e487b7100000000000000000000000000000000000000000000000000000000600052602260045260246000fd5b6000600282049050600182168061089257607f821691505b602082108114156108a6576108a561084b565b5b50919050565b7f446f6e6174696f6e20616d6f756e742073686f756c64206265206c657373207460008201527f68616e2031204554480000000000000000000000000000000000000000000000602082015250565b60006109086029836105ab565b9150610913826108ac565b604082019050919050565b60006020820190508181036000830152610937816108fb565b9050919050565b7f4e487b7100000000000000000000000000000000000000000000000000000000600052601160045260246000fd5b60006109788261065b565b91506109838361065b565b9250827fffffffffffffffffffffffffffffffffffffffffffffffffffffffffffffffff038211156109b8576109b761093e565b5b82820190509291505056fea26469706673582212207687f26e351fa5157480ec6da4bf1599167843514beff1c80b1b0a1029318b0e64736f6c634300080a0033",
  "linkReferences": {},
  "deployedLinkReferences": {}
}