{
  "_format": "hh-sol-artifact-1",
  "contractName": "Campaign",
  "sourceName": "contracts/Campaign.sol",
  "abi": [
    {
      "inputs": [
        {
          "internalType": "string",
          "name": "campaignTitle",
          "type": "string"
        },
        {
          "internalType": "uint256",
          "name": "requiredCampaignAmount",
          "type": "uint256"
        },
        {
          "internalType": "string",
          "name": "imgURI",
          "type": "string"
        },
        {
          "internalType": "string",
          "name": "storyURI",
          "type": "string"
        },
        {
          "internalType": "address",
          "name": "campaignOwner",
          "type": "address"
        }
      ],
      "stateMutability": "nonpayable",
      "type": "constructor"
    },
    {
      "inputs": [
        {
          "internalType": "string",
          "name": "message",
          "type": "string"
        },
        {
          "internalType": "uint256",
          "name": "donationRemaining",
          "type": "uint256"
        }
      ],
      "name": "TooHighDonation",
      "type": "error"
    },
    {
      "anonymous": false,
      "inputs": [
        {
          "indexed": true,
          "internalType": "address",
          "name": "donar",
          "type": "address"
        },
        {
          "indexed": true,
          "internalType": "uint256",
          "name": "amount",
          "type": "uint256"
        },
        {
          "indexed": true,
          "internalType": "uint256",
          "name": "timestamp",
          "type": "uint256"
        }
      ],
      "name": "donated",
      "type": "event"
    },
    {
      "anonymous": false,
      "inputs": [
        {
          "indexed": false,
          "internalType": "uint256",
          "name": "amount",
          "type": "uint256"
        }
      ],
      "name": "withdrawn",
      "type": "event"
    },
    {
      "stateMutability": "payable",
      "type": "fallback"
    },
    {
      "inputs": [],
      "name": "acceptingDonation",
      "outputs": [
        {
          "internalType": "bool",
          "name": "",
          "type": "bool"
        }
      ],
      "stateMutability": "view",
      "type": "function"
    },
    {
      "inputs": [],
      "name": "donate",
      "outputs": [],
      "stateMutability": "payable",
      "type": "function"
    },
    {
      "inputs": [],
      "name": "image",
      "outputs": [
        {
          "internalType": "string",
          "name": "",
          "type": "string"
        }
      ],
      "stateMutability": "view",
      "type": "function"
    },
    {
      "inputs": [],
      "name": "owner",
      "outputs": [
        {
          "internalType": "address payable",
          "name": "",
          "type": "address"
        }
      ],
      "stateMutability": "view",
      "type": "function"
    },
    {
      "inputs": [],
      "name": "receivedAmount",
      "outputs": [
        {
          "internalType": "uint256",
          "name": "",
          "type": "uint256"
        }
      ],
      "stateMutability": "view",
      "type": "function"
    },
    {
      "inputs": [],
      "name": "requiredAmount",
      "outputs": [
        {
          "internalType": "uint256",
          "name": "",
          "type": "uint256"
        }
      ],
      "stateMutability": "view",
      "type": "function"
    },
    {
      "inputs": [],
      "name": "story",
      "outputs": [
        {
          "internalType": "string",
          "name": "",
          "type": "string"
        }
      ],
      "stateMutability": "view",
      "type": "function"
    },
    {
      "inputs": [],
      "name": "title",
      "outputs": [
        {
          "internalType": "string",
          "name": "",
          "type": "string"
        }
      ],
      "stateMutability": "view",
      "type": "function"
    },
    {
      "inputs": [],
      "name": "withdraw",
      "outputs": [],
      "stateMutability": "payable",
      "type": "function"
    },
    {
      "stateMutability": "payable",
      "type": "receive"
    }
  ],
  "bytecode": "0x60806040526001600660006101000a81548160ff0219169083151502179055503480156200002c57600080fd5b506040516200108b3803806200108b8339818101604052810190620000529190620003dd565b84600090805190602001906200006a929190620000f0565b508360018190555082600290805190602001906200008a929190620000f0565b508160039080519060200190620000a3929190620000f0565b5080600460006101000a81548173ffffffffffffffffffffffffffffffffffffffff021916908373ffffffffffffffffffffffffffffffffffffffff160217905550505050505062000527565b828054620000fe90620004f1565b90600052602060002090601f0160209004810192826200012257600085556200016e565b82601f106200013d57805160ff19168380011785556200016e565b828001600101855582156200016e579182015b828111156200016d57825182559160200191906001019062000150565b5b5090506200017d919062000181565b5090565b5b808211156200019c57600081600090555060010162000182565b5090565b6000604051905090565b600080fd5b600080fd5b600080fd5b600080fd5b6000601f19601f8301169050919050565b7f4e487b7100000000000000000000000000000000000000000000000000000000600052604160045260246000fd5b6200020982620001be565b810181811067ffffffffffffffff821117156200022b576200022a620001cf565b5b80604052505050565b600062000240620001a0565b90506200024e8282620001fe565b919050565b600067ffffffffffffffff821115620002715762000270620001cf565b5b6200027c82620001be565b9050602081019050919050565b60005b83811015620002a95780820151818401526020810190506200028c565b83811115620002b9576000848401525b50505050565b6000620002d6620002d08462000253565b62000234565b905082815260208101848484011115620002f557620002f4620001b9565b5b6200030284828562000289565b509392505050565b600082601f830112620003225762000321620001b4565b5b815162000334848260208601620002bf565b91505092915050565b6000819050919050565b62000352816200033d565b81146200035e57600080fd5b50565b600081519050620003728162000347565b92915050565b600073ffffffffffffffffffffffffffffffffffffffff82169050919050565b6000620003a58262000378565b9050919050565b620003b78162000398565b8114620003c357600080fd5b50565b600081519050620003d781620003ac565b92915050565b600080600080600060a08688031215620003fc57620003fb620001aa565b5b600086015167ffffffffffffffff8111156200041d576200041c620001af565b5b6200042b888289016200030a565b95505060206200043e8882890162000361565b945050604086015167ffffffffffffffff811115620004625762000461620001af565b5b62000470888289016200030a565b935050606086015167ffffffffffffffff811115620004945762000493620001af565b5b620004a2888289016200030a565b9250506080620004b588828901620003c6565b9150509295509295909350565b7f4e487b7100000000000000000000000000000000000000000000000000000000600052602260045260246000fd5b600060028204905060018216806200050a57607f821691505b60208210811415620005215762000520620004c2565b5b50919050565b610b5480620005376000396000f3fe60806040526004361061008a5760003560e01c80638da5cb5b116100595780638da5cb5b1461012e5780639632e72014610159578063ed88c68e14610184578063ef043be61461018e578063f3ccaac0146101b957610099565b80633ccfd60b146100a357806346c922d1146100ad57806348b9ef40146100d85780634a79d50c1461010357610099565b36610099576100976101e4565b005b6100a16101e4565b005b6100ab61032a565b005b3480156100b957600080fd5b506100c26104b0565b6040516100cf9190610738565b60405180910390f35b3480156100e457600080fd5b506100ed61053e565b6040516100fa9190610773565b60405180910390f35b34801561010f57600080fd5b50610118610544565b6040516101259190610738565b60405180910390f35b34801561013a57600080fd5b506101436105d2565b60405161015091906107cf565b60405180910390f35b34801561016557600080fd5b5061016e6105f8565b60405161017b9190610773565b60405180910390f35b61018c6101e4565b005b34801561019a57600080fd5b506101a36105fe565b6040516101b09190610805565b60405180910390f35b3480156101c557600080fd5b506101ce610611565b6040516101db9190610738565b60405180910390f35b600660009054906101000a900460ff166101fd57600080fd5b60003411610240576040517f08c379a00000000000000000000000000000000000000000000000000000000081526004016102379061086c565b60405180910390fd5b60055460015461025091906108bb565b3411156102a35760055460015461026791906108bb565b6040517f1f48064000000000000000000000000000000000000000000000000000000000815260040161029a919061093b565b60405180910390fd5b34600560008282546102b59190610969565b92505081905550600154600554106102e3576000600660006101000a81548160ff0219169083151502179055505b42343373ffffffffffffffffffffffffffffffffffffffff167fe6add99d06d9ad7fc456e746aa162eed6211c5002ef2dacdd67b8d2016822fba60405160405180910390a4565b600660009054906101000a900460ff161561037a576040517f08c379a000000000000000000000000000000000000000000000000000000000815260040161037190610a0b565b60405180910390fd5b600460009054906101000a900473ffffffffffffffffffffffffffffffffffffffff1673ffffffffffffffffffffffffffffffffffffffff163373ffffffffffffffffffffffffffffffffffffffff161461040a576040517f08c379a000000000000000000000000000000000000000000000000000000000815260040161040190610a9d565b60405180910390fd5b600460009054906101000a900473ffffffffffffffffffffffffffffffffffffffff1673ffffffffffffffffffffffffffffffffffffffff166108fc6005549081150290604051600060405180830381858888f19350505050158015610474573d6000803e3d6000fd5b507fe6b43d01275ea8d9d25bfaa418ad4c2cba4924a59bae1903979130e0a2bbf1926005546040516104a69190610773565b60405180910390a1565b600380546104bd90610aec565b80601f01602080910402602001604051908101604052809291908181526020018280546104e990610aec565b80156105365780601f1061050b57610100808354040283529160200191610536565b820191906000526020600020905b81548152906001019060200180831161051957829003601f168201915b505050505081565b60015481565b6000805461055190610aec565b80601f016020809104026020016040519081016040528092919081815260200182805461057d90610aec565b80156105ca5780601f1061059f576101008083540402835291602001916105ca565b820191906000526020600020905b8154815290600101906020018083116105ad57829003601f168201915b505050505081565b600460009054906101000a900473ffffffffffffffffffffffffffffffffffffffff1681565b60055481565b600660009054906101000a900460ff1681565b6002805461061e90610aec565b80601f016020809104026020016040519081016040528092919081815260200182805461064a90610aec565b80156106975780601f1061066c57610100808354040283529160200191610697565b820191906000526020600020905b81548152906001019060200180831161067a57829003601f168201915b505050505081565b600081519050919050565b600082825260208201905092915050565b60005b838110156106d95780820151818401526020810190506106be565b838111156106e8576000848401525b50505050565b6000601f19601f8301169050919050565b600061070a8261069f565b61071481856106aa565b93506107248185602086016106bb565b61072d816106ee565b840191505092915050565b6000602082019050818103600083015261075281846106ff565b905092915050565b6000819050919050565b61076d8161075a565b82525050565b60006020820190506107886000830184610764565b92915050565b600073ffffffffffffffffffffffffffffffffffffffff82169050919050565b60006107b98261078e565b9050919050565b6107c9816107ae565b82525050565b60006020820190506107e460008301846107c0565b92915050565b60008115159050919050565b6107ff816107ea565b82525050565b600060208201905061081a60008301846107f6565b92915050565b7f4d73672e76616c7565203d203000000000000000000000000000000000000000600082015250565b6000610856600d836106aa565b915061086182610820565b602082019050919050565b6000602082019050818103600083015261088581610849565b9050919050565b7f4e487b7100000000000000000000000000000000000000000000000000000000600052601160045260246000fd5b60006108c68261075a565b91506108d18361075a565b9250828210156108e4576108e361088c565b5b828203905092915050565b7f446f6e6174696f6e20726f6f6d206c6566740000000000000000000000000000600082015250565b60006109256012836106aa565b9150610930826108ef565b602082019050919050565b6000604082019050818103600083015261095481610918565b90506109636020830184610764565b92915050565b60006109748261075a565b915061097f8361075a565b9250827fffffffffffffffffffffffffffffffffffffffffffffffffffffffffffffffff038211156109b4576109b361088c565b5b828201905092915050565b7f43616d706169676e207374696c6c206e6f74206f766572000000000000000000600082015250565b60006109f56017836106aa565b9150610a00826109bf565b602082019050919050565b60006020820190508181036000830152610a24816109e8565b9050919050565b7f4f6e6c7920746865206f776e6572206f66207468652063616d706169676e206360008201527f616e207769746864726177000000000000000000000000000000000000000000602082015250565b6000610a87602b836106aa565b9150610a9282610a2b565b604082019050919050565b60006020820190508181036000830152610ab681610a7a565b9050919050565b7f4e487b7100000000000000000000000000000000000000000000000000000000600052602260045260246000fd5b60006002820490506001821680610b0457607f821691505b60208210811415610b1857610b17610abd565b5b5091905056fea26469706673582212205c2d138d7c84cbca8ca036ed8458443aff171a0fccf80c7f43b7e7b6e0e82eb464736f6c634300080a0033",
  "linkReferences": {},
  "deployedLinkReferences": {}
}