{
  "_format": "hh-sol-artifact-1",
  "contractName": "Campaign",
  "sourceName": "contracts/Campaign.sol",
  "abi": [
    {
      "inputs": [
        {
          "internalType": "string",
          "name": "campaignTitle",
          "type": "string"
        },
        {
          "internalType": "uint256",
          "name": "requiredCampaignAmount",
          "type": "uint256"
        },
        {
          "internalType": "string",
          "name": "imgURI",
          "type": "string"
        },
        {
          "internalType": "string",
          "name": "storyURI",
          "type": "string"
        },
        {
          "internalType": "address",
          "name": "campaignOwner",
          "type": "address"
        },
        {
          "internalType": "uint256",
          "name": "campaignDeadline",
          "type": "uint256"
        }
      ],
      "stateMutability": "nonpayable",
      "type": "constructor"
    },
    {
      "inputs": [
        {
          "internalType": "string",
          "name": "message",
          "type": "string"
        },
        {
          "internalType": "uint256",
          "name": "donationRemaining",
          "type": "uint256"
        }
      ],
      "name": "TooHighDonation",
      "type": "error"
    },
    {
      "anonymous": false,
      "inputs": [
        {
          "indexed": true,
          "internalType": "address",
          "name": "donar",
          "type": "address"
        },
        {
          "indexed": true,
          "internalType": "uint256",
          "name": "amount",
          "type": "uint256"
        },
        {
          "indexed": true,
          "internalType": "uint256",
          "name": "timestamp",
          "type": "uint256"
        }
      ],
      "name": "donated",
      "type": "event"
    },
    {
      "anonymous": false,
      "inputs": [
        {
          "indexed": false,
          "internalType": "uint256",
          "name": "amount",
          "type": "uint256"
        }
      ],
      "name": "withdrawn",
      "type": "event"
    },
    {
      "stateMutability": "payable",
      "type": "fallback"
    },
    {
      "inputs": [],
      "name": "acceptingDonation",
      "outputs": [
        {
          "internalType": "bool",
          "name": "",
          "type": "bool"
        }
      ],
      "stateMutability": "view",
      "type": "function"
    },
    {
      "inputs": [
        {
          "internalType": "address",
          "name": "",
          "type": "address"
        }
      ],
      "name": "contributers",
      "outputs": [
        {
          "internalType": "uint256",
          "name": "",
          "type": "uint256"
        }
      ],
      "stateMutability": "view",
      "type": "function"
    },
    {
      "inputs": [],
      "name": "deadline",
      "outputs": [
        {
          "internalType": "uint256",
          "name": "",
          "type": "uint256"
        }
      ],
      "stateMutability": "view",
      "type": "function"
    },
    {
      "inputs": [],
      "name": "donate",
      "outputs": [],
      "stateMutability": "payable",
      "type": "function"
    },
    {
      "inputs": [],
      "name": "image",
      "outputs": [
        {
          "internalType": "string",
          "name": "",
          "type": "string"
        }
      ],
      "stateMutability": "view",
      "type": "function"
    },
    {
      "inputs": [],
      "name": "owner",
      "outputs": [
        {
          "internalType": "address payable",
          "name": "",
          "type": "address"
        }
      ],
      "stateMutability": "view",
      "type": "function"
    },
    {
      "inputs": [],
      "name": "receivedAmount",
      "outputs": [
        {
          "internalType": "uint256",
          "name": "",
          "type": "uint256"
        }
      ],
      "stateMutability": "view",
      "type": "function"
    },
    {
      "inputs": [],
      "name": "refund",
      "outputs": [],
      "stateMutability": "nonpayable",
      "type": "function"
    },
    {
      "inputs": [],
      "name": "requiredAmount",
      "outputs": [
        {
          "internalType": "uint256",
          "name": "",
          "type": "uint256"
        }
      ],
      "stateMutability": "view",
      "type": "function"
    },
    {
      "inputs": [],
      "name": "story",
      "outputs": [
        {
          "internalType": "string",
          "name": "",
          "type": "string"
        }
      ],
      "stateMutability": "view",
      "type": "function"
    },
    {
      "inputs": [],
      "name": "title",
      "outputs": [
        {
          "internalType": "string",
          "name": "",
          "type": "string"
        }
      ],
      "stateMutability": "view",
      "type": "function"
    },
    {
      "inputs": [],
      "name": "withdraw",
      "outputs": [],
      "stateMutability": "nonpayable",
      "type": "function"
    },
    {
      "stateMutability": "payable",
      "type": "receive"
    }
  ],
  "bytecode": "0x60806040526001600860006101000a81548160ff0219169083151502179055503480156200002c57600080fd5b50604051620014ce380380620014ce8339818101604052810190620000529190620003ed565b600160008190555085600290805190602001906200007292919062000100565b508460038190555083600490805190602001906200009292919062000100565b508260059080519060200190620000ab92919062000100565b5081600660006101000a81548173ffffffffffffffffffffffffffffffffffffffff021916908373ffffffffffffffffffffffffffffffffffffffff160217905550806009819055505050505050506200054b565b8280546200010e9062000515565b90600052602060002090601f0160209004810192826200013257600085556200017e565b82601f106200014d57805160ff19168380011785556200017e565b828001600101855582156200017e579182015b828111156200017d57825182559160200191906001019062000160565b5b5090506200018d919062000191565b5090565b5b80821115620001ac57600081600090555060010162000192565b5090565b6000604051905090565b600080fd5b600080fd5b600080fd5b600080fd5b6000601f19601f8301169050919050565b7f4e487b7100000000000000000000000000000000000000000000000000000000600052604160045260246000fd5b6200021982620001ce565b810181811067ffffffffffffffff821117156200023b576200023a620001df565b5b80604052505050565b600062000250620001b0565b90506200025e82826200020e565b919050565b600067ffffffffffffffff821115620002815762000280620001df565b5b6200028c82620001ce565b9050602081019050919050565b60005b83811015620002b95780820151818401526020810190506200029c565b83811115620002c9576000848401525b50505050565b6000620002e6620002e08462000263565b62000244565b905082815260208101848484011115620003055762000304620001c9565b5b6200031284828562000299565b509392505050565b600082601f830112620003325762000331620001c4565b5b815162000344848260208601620002cf565b91505092915050565b6000819050919050565b62000362816200034d565b81146200036e57600080fd5b50565b600081519050620003828162000357565b92915050565b600073ffffffffffffffffffffffffffffffffffffffff82169050919050565b6000620003b58262000388565b9050919050565b620003c781620003a8565b8114620003d357600080fd5b50565b600081519050620003e781620003bc565b92915050565b60008060008060008060c087890312156200040d576200040c620001ba565b5b600087015167ffffffffffffffff8111156200042e576200042d620001bf565b5b6200043c89828a016200031a565b96505060206200044f89828a0162000371565b955050604087015167ffffffffffffffff811115620004735762000472620001bf565b5b6200048189828a016200031a565b945050606087015167ffffffffffffffff811115620004a557620004a4620001bf565b5b620004b389828a016200031a565b9350506080620004c689828a01620003d6565b92505060a0620004d989828a0162000371565b9150509295509295509295565b7f4e487b7100000000000000000000000000000000000000000000000000000000600052602260045260246000fd5b600060028204905060018216806200052e57607f821691505b60208210811415620005455762000544620004e6565b5b50919050565b610f73806200055b6000396000f3fe6080604052600436106100ab5760003560e01c8063590e1ae311610064578063590e1ae3146101c45780638da5cb5b146101db5780639632e72014610206578063ed88c68e14610231578063ef043be61461023b578063f3ccaac014610266576100ba565b806329dcb0cf146100c457806334b66460146100ef5780633ccfd60b1461012c57806346c922d11461014357806348b9ef401461016e5780634a79d50c14610199576100ba565b366100ba576100b8610291565b005b6100c2610291565b005b3480156100d057600080fd5b506100d9610471565b6040516100e6919061098f565b60405180910390f35b3480156100fb57600080fd5b5061011660048036038101906101119190610a0d565b610477565b604051610123919061098f565b60405180910390f35b34801561013857600080fd5b5061014161048f565b005b34801561014f57600080fd5b50610158610615565b6040516101659190610ad3565b60405180910390f35b34801561017a57600080fd5b506101836106a3565b604051610190919061098f565b60405180910390f35b3480156101a557600080fd5b506101ae6106a9565b6040516101bb9190610ad3565b60405180910390f35b3480156101d057600080fd5b506101d9610737565b005b3480156101e757600080fd5b506101f06108a9565b6040516101fd9190610b16565b60405180910390f35b34801561021257600080fd5b5061021b6108cf565b604051610228919061098f565b60405180910390f35b610239610291565b005b34801561024757600080fd5b506102506108d5565b60405161025d9190610b4c565b60405180910390f35b34801561027257600080fd5b5061027b6108e8565b6040516102889190610ad3565b60405180910390f35b600860009054906101000a900460ff166102aa57600080fd5b60095442106102ee576040517f08c379a00000000000000000000000000000000000000000000000000000000081526004016102e590610bb3565b60405180910390fd5b60003411610331576040517f08c379a000000000000000000000000000000000000000000000000000000000815260040161032890610c1f565b60405180910390fd5b6007546003546103419190610c6e565b341115610394576007546003546103589190610c6e565b6040517f1f48064000000000000000000000000000000000000000000000000000000000815260040161038b9190610cee565b60405180910390fd5b34600760008282546103a69190610d1c565b9250508190555034600160003373ffffffffffffffffffffffffffffffffffffffff1673ffffffffffffffffffffffffffffffffffffffff16815260200190815260200160002060008282546103fc9190610d1c565b925050819055506003546007541061042a576000600860006101000a81548160ff0219169083151502179055505b42343373ffffffffffffffffffffffffffffffffffffffff167fe6add99d06d9ad7fc456e746aa162eed6211c5002ef2dacdd67b8d2016822fba60405160405180910390a4565b60095481565b60016020528060005260406000206000915090505481565b600860009054906101000a900460ff16156104df576040517f08c379a00000000000000000000000000000000000000000000000000000000081526004016104d690610dbe565b60405180910390fd5b600660009054906101000a900473ffffffffffffffffffffffffffffffffffffffff1673ffffffffffffffffffffffffffffffffffffffff163373ffffffffffffffffffffffffffffffffffffffff161461056f576040517f08c379a000000000000000000000000000000000000000000000000000000000815260040161056690610e50565b60405180910390fd5b600660009054906101000a900473ffffffffffffffffffffffffffffffffffffffff1673ffffffffffffffffffffffffffffffffffffffff166108fc6007549081150290604051600060405180830381858888f193505050501580156105d9573d6000803e3d6000fd5b507fe6b43d01275ea8d9d25bfaa418ad4c2cba4924a59bae1903979130e0a2bbf19260075460405161060b919061098f565b60405180910390a1565b6005805461062290610e9f565b80601f016020809104026020016040519081016040528092919081815260200182805461064e90610e9f565b801561069b5780601f106106705761010080835404028352916020019161069b565b820191906000526020600020905b81548152906001019060200180831161067e57829003601f168201915b505050505081565b60035481565b600280546106b690610e9f565b80601f01602080910402602001604051908101604052809291908181526020018280546106e290610e9f565b801561072f5780601f106107045761010080835404028352916020019161072f565b820191906000526020600020905b81548152906001019060200180831161071257829003601f168201915b505050505081565b6009544211801561074b5750600354600754105b61075457600080fd5b6000600160003373ffffffffffffffffffffffffffffffffffffffff1673ffffffffffffffffffffffffffffffffffffffff16815260200190815260200160002054116107d6576040517f08c379a00000000000000000000000000000000000000000000000000000000081526004016107cd90610f1d565b60405180910390fd5b60003390508073ffffffffffffffffffffffffffffffffffffffff166108fc600160003373ffffffffffffffffffffffffffffffffffffffff1673ffffffffffffffffffffffffffffffffffffffff168152602001908152602001600020549081150290604051600060405180830381858888f19350505050158015610860573d6000803e3d6000fd5b506000600160003373ffffffffffffffffffffffffffffffffffffffff1673ffffffffffffffffffffffffffffffffffffffff1681526020019081526020016000208190555050565b600660009054906101000a900473ffffffffffffffffffffffffffffffffffffffff1681565b60075481565b600860009054906101000a900460ff1681565b600480546108f590610e9f565b80601f016020809104026020016040519081016040528092919081815260200182805461092190610e9f565b801561096e5780601f106109435761010080835404028352916020019161096e565b820191906000526020600020905b81548152906001019060200180831161095157829003601f168201915b505050505081565b6000819050919050565b61098981610976565b82525050565b60006020820190506109a46000830184610980565b92915050565b600080fd5b600073ffffffffffffffffffffffffffffffffffffffff82169050919050565b60006109da826109af565b9050919050565b6109ea816109cf565b81146109f557600080fd5b50565b600081359050610a07816109e1565b92915050565b600060208284031215610a2357610a226109aa565b5b6000610a31848285016109f8565b91505092915050565b600081519050919050565b600082825260208201905092915050565b60005b83811015610a74578082015181840152602081019050610a59565b83811115610a83576000848401525b50505050565b6000601f19601f8301169050919050565b6000610aa582610a3a565b610aaf8185610a45565b9350610abf818560208601610a56565b610ac881610a89565b840191505092915050565b60006020820190508181036000830152610aed8184610a9a565b905092915050565b6000610b00826109af565b9050919050565b610b1081610af5565b82525050565b6000602082019050610b2b6000830184610b07565b92915050565b60008115159050919050565b610b4681610b31565b82525050565b6000602082019050610b616000830184610b3d565b92915050565b7f446561646c696e652068617320456e6465642100000000000000000000000000600082015250565b6000610b9d601383610a45565b9150610ba882610b67565b602082019050919050565b60006020820190508181036000830152610bcc81610b90565b9050919050565b7f4d73672e76616c7565203d203000000000000000000000000000000000000000600082015250565b6000610c09600d83610a45565b9150610c1482610bd3565b602082019050919050565b60006020820190508181036000830152610c3881610bfc565b9050919050565b7f4e487b7100000000000000000000000000000000000000000000000000000000600052601160045260246000fd5b6000610c7982610976565b9150610c8483610976565b925082821015610c9757610c96610c3f565b5b828203905092915050565b7f446f6e6174696f6e20726f6f6d206c6566740000000000000000000000000000600082015250565b6000610cd8601283610a45565b9150610ce382610ca2565b602082019050919050565b60006040820190508181036000830152610d0781610ccb565b9050610d166020830184610980565b92915050565b6000610d2782610976565b9150610d3283610976565b9250827fffffffffffffffffffffffffffffffffffffffffffffffffffffffffffffffff03821115610d6757610d66610c3f565b5b828201905092915050565b7f43616d706169676e207374696c6c206e6f74206f766572000000000000000000600082015250565b6000610da8601783610a45565b9150610db382610d72565b602082019050919050565b60006020820190508181036000830152610dd781610d9b565b9050919050565b7f4f6e6c7920746865206f776e6572206f66207468652063616d706169676e206360008201527f616e207769746864726177000000000000000000000000000000000000000000602082015250565b6000610e3a602b83610a45565b9150610e4582610dde565b604082019050919050565b60006020820190508181036000830152610e6981610e2d565b9050919050565b7f4e487b7100000000000000000000000000000000000000000000000000000000600052602260045260246000fd5b60006002820490506001821680610eb757607f821691505b60208210811415610ecb57610eca610e70565b5b50919050565b7f4e6f7420656c696769626c6520666f7220726566756e64000000000000000000600082015250565b6000610f07601783610a45565b9150610f1282610ed1565b602082019050919050565b60006020820190508181036000830152610f3681610efa565b905091905056fea26469706673582212205ce87869892d767d94e992adb38123bbb2dae012aec0b0d911e2b6cfc9c4dd1c64736f6c634300080a0033",
  "linkReferences": {},
  "deployedLinkReferences": {}
}